:040000006FEF00F0AE
:10000800FACF08F0FBCF09F0E9CF0AF0EACF0BF0FE
:10001800E1CF0CF0E2CF0DF0D9CF0EF0DACF0FF030
:10002800F3CF10F0F4CF11F0F6CF12F0F7CF13F0B2
:10003800F8CF14F0F5CF15F0A4A030D00F013F830E
:100048000F013F8199CF16F017C003F098CF04F045
:10005800185071EC00F099CF16F0174A182A17C0FB
:1000680003F016C004F0185071EC00F0174A182A73
:1000780017C003F098CF04F0185071EC00F0174A3D
:10008800182A99CF16F017C003F099CF04F018502A
:1000980071EC00F0174A182AA49000D015C0F5FF9B
:1000A80014C0F8FF13C0F7FF12C0F6FF11C0F4FF29
:1000B80010C0F3FF0FC0DAFF0EC0D9FF0DC0E2FF7A
:1000C8000CC0E1FF0BC0EAFF0AC0E9FF09C0FBFF53
:1000D80008C0FAFF11006AEF01F0066EA60E076E5F
:1000E800800EC76E180EC86E280EC66E000EC56E3E
:1000F8009388938A000E016E080E5DEC01F0090EDC
:10010800C86E000EC66EC690C692C694C696C79EA6
:10011800C68AC58007501FEC01F000D0C7A403D0E1
:10012800056A052A01D0056AC5501F0B051000098C
:10013800D8A4F4D706501FEC01F000D0C7A403D010
:10014800056A052A01D0056AC5501F0B051000096C
:10015800D8A4F4D703501FEC01F000D0C7A403D0F3
:10016800056A052A01D0056AC5501F0B051000094C
:10017800D8A4F4D704501FEC01F000D0C7A403D0D2
:10018800056A052A01D0056AC5501F0B051000092C
:10019800D8A4F4D7C58400D0C5B4FED7C69A120037
:1001A8001200D388D38AD38C050E0F013C6F550EED
:1001B800A76EAA0EA76E0F013F8B0F013F830F0199
:1001C8003F810B0E986E9968010E986E010E996E1C
:1001D800120E986E010E996E000E986E000E996EB2
:1001E8000F013F9F0F013F8F550EA76EAA0EA76EF6
:1001F8000F013F9B919E91829190010E8E6E010E90
:100208008F6E120E8E6E010E8F6E020E8E6E000EA7
:100218008F6E000E906E918C9150C30B0C09916EED
:10022800918EA490A380F28CF28E010E936E03003F
:10023800FED76FEF00F0026E02C0C9FFC6AE02D053
:10024800FF0E1200C6500F0B080AD8B410D0C650C3
:100258000F0B0B0AD8B40BD0C68800D09EA6FED7C9
:10026800C7A4C7B002D0FE0E1200000E1200C6507E
:100278000F0B080AD8B406D0C6500F0B0B0AD8A427
:10028800120000D0C7A002D0FDD700D0C7A403D069
:10029800016A012A01D0016AC5501F0B011000092B
:1002A800D8A4F4D7C5AC02D0FE0E1200000E12007E
:1002B8001200026E3F0EC716000EC66E000EC56E07
:1002C8000250C6120150C712C68A1200186A176A6D
:0602D8000001D5EF00F06B
:08FFF8008EF710FFFDF9FFF187
:00000001FF
